:10E00000FEA0006E00FEA0066E0020077DA08C27FB
:10E01000FE20318D63815326FA8D5D813927ED8194
:10E020003126F07FA00A8D2D8002B7A00B8D188DB0
:10E03000247AA00B2705A7000820F47CA00A27D388
:10E04000863F8D317EE0E38D0CB7A00C8D07B7A025
:10E050000DFEA00C398D5348484848168D4C1B16B0
:10E06000FBA00AF7A00A3944444444840F8B308152
:10E070003923028B077EE1D17EE1AC8DF808A60042
:10E08000810426F7398DC0CEE19B8DF2CEA00C8D98
:10E0900037FEA00C8D34FFA00C8DDD812026E88D8D
:10E0A000B409A700A10027DF20968DCC80302B94E7
:10E0B00081092F0A81112B8C81162E88800739A6A1
:10E0C000008DA4A6000820A38DF58DF3862020A541
:10E0D0008EA042BFA0088603B780004CB78011BD58
:10E0E000E2A3018EA042CEE19B8D938D8B168DDC39
:10E0F000CEE3D36D002714E1002604EE016E000884
:10E10000080820EF8611B7800020D87EE04001BECD
:10E11000A0083BBFA008306D0626026A056A06FE0D
:10E12000A008088DA58DA38DA18D9D8D9BCEA008E7
:10E130008D9620AF0D0A00000000533104BDE29916
:10E14000FEA002FFA00FB6A005B0A010F6A004F23A
:10E15000A00F260481102502860F8B04B7A0118022
:10E1600003B7A00ECEE134BDE07E5FCEA0118D26B8
:10E17000CEA00F8D218D1FFEA00F8D1A7AA00E2626
:10E18000F9FFA00F5337308D0D33FEA00F09BCA04F
:10E190000426B37EE2C5EB007EE0BF0D0A00002A34
:10E1A000048D4B6E00FFA012CE800039867F8DF566
:10E1B00037E6112A04A4102007E6005424F3A40132
:10E1C0007DA08B2610817F200A0101010101010140
:10E1D00001200627DC33FEA0128DCA37F6800054DA
:10E1E0005424F9B78001BDE40533FEA012397EE066
:01E1F00047E7
:10E29900C6204FBDE1D15A26FA398615B7800086C6
:10E2A90001B7A08BB7A08CBDE4EDBDE4FFCEE3FBC5
:10E2B900BDE07E390101010101010101CEE3A1BDEA
:10E2C900E07E20428D46FFA0808D4108FFA00F8D82
:10E2D9003BFEA080A600FEA00CA70008FFA00CFE34
:10E2E900A08008FFA080BCA00F26E920198D1DC6BB
:10E2F90040CEE394BDE07EFEA00CBDE0BF8D0A8D4B
:10E30900088D065A26F47EE0E37EE0CCBDE0478D19
:10E31900F8397EE1D1C60CCEA0805A26037EE040B2
:10E32900BDE1AC810D2705A7000820EE860A8DE224
:10E339008604A700398DDEBDE2994C8DD58DD38D2C
:10E34900D18DCFCEA080BDE07E7EE1408DC7C604D1
:10E359008D3C81012712815326F48D32813926EEB5
:10E36900CEE391BDE07E20E65A26E5CEA080BDE150
:10E37900ACA1002709BDE1AC810A26F920D00886A5
:10E3890004A10026E97EE00A454E440D0A04B68040
:10E39900004424FAB680013920533904BDE3150835
:10E3A90008FFA00FBDE315CEA00CE601E004A6000E
:10E3B900A2032607C17F230A7EE0404C26FAC17FCB
:10E3C90023F6E700BDE0BF7EE0E347E10F4DE085BE
:10E3D90052E11F50E13D4CE00A56E33E49E35554F2
:10E3E900E3A54BE2F659E2CD4AE1A155E1045AE62B
:10E3F90016000D0A0A0000544255470436F68012E9
:10E40900C401275E8100275A817F2756810D26097D
:10E41900B6A08D5FBDE5F1207B810A261EB6A08DD1
:10E429008101260EB6A08EBDE49F168601BDE5F1D9
:10E4390020624CF6A08EBDE5F120598108261CF614
:10E44900A08E27505AB6A08DBDE5F186208DADB6B8
:10E45900A08DF6A08E5ABDE5F12039810C2605BDA7
:10E46900E54C203081202D2CF6A08EC110261FF6F8
:10E47900A08DC101270D36860D8D81860ABDE40563
:10E4890032200BBDE49F3686015FBDE5F132BDE563
:10E49900867CA08E3239365F8601CB104A26FB1B5B
:10E4A900CEA08FFFA0B1F6A0B21BB7A0B0B6A0B1A5
:10E4B9008900B7A0AFFEA0AF4F5FBDE5F1C610A6BA
:10E4C9000037BDE5867CA08E33085A26F286015FA7
:10E4D900BDE5F1C610862037BDE5867CA08E335A8E
:10E4E90026F532394FB7801386FEB780128604B7F6
:10E4F90080137F801239CE04E28D6F86308D6FCE06
:10E5090002718D6686308D66C6118D5A86308D5E94
:10E51900C6118D5286208D56C6118D4A8628BDE5B5
:10E52900D3C6098D418608BDE5D3C6098D3886064F
:10E53900BDE5D3C6098D2F860EBDE5D3C6098D2647
:10E549008D0139FFA0B38601BDE5D3C6FF8D177FC5
:10E55900A08D7FA08ECEA08F8620A700088CA0AFAB
:10E5690026F8FEA0B3395A26FD390926FD39368425
:10E57900F08A08B7801284F7B78012323936FFA0C3
:10E58900B316C4F0CA0CF78012C4F7F780124848D2
:10E5990048488A0CB7801284F7B780125FB6A08DFD
:10E5A9002705CB104A20F9FBA08E17CEA08FFFA01C
:10E5B900B1F6A0B21BB7A0B0B6A0B18900B7A0AFA1
:10E5C90032FEA0AFA700FEA0B3393616C4F0CA08C0
:10E5D900F78012C4F3F78012484848488A08B78080
:10E5E9001284F3B780123239B7A08DF7A08E48484C
:10E5F900484848488A801B8DD1390D0A4C6F61649F
:10E60900696E672042415349432E2E2E04CEE603FC
:10E61900BDE07ECE0100FFA00FCEF3A3FFA002CE86
:10E62900FFF7FFA0048D0ACE1F008639A7007E01DF
:10E6390000FEA002A600FEA00FA70008FFA00FFE83
:0EE64900A002BCA004270608FFA00220E439AE
:08FFF800E000E113E005E0D098
:10F3A3007E01A67E01B07EE1D1BDE1AC7E04521E9A
:10F3B300FF50524904AE494E5007A049462008BAAF
:10F3C3004C4554077A464F52097E4E455809A54786
:10F3D3004F540789474F5309334F4E20087E5245F8
:10F3E30054095B524541082E444154081F5245536A
:10F3F300087444494D067945585407094D4F4EE06A
:10F40300E3454E4401B052454D070C52554E076734
:10F413004C495303EC53435201A600524E440AC8CD
:10F423004142530AC453474E0ABC00CE0100DF0ACF
:10F43300CE000C2008FE010FDF0AFE0D554FA7007A
:10F44300089C0A26F9398DE3CE0D57FF0D558DE53E
:10F45300CE0103FFA0488EA07FCE0068DF0A8DD0C7
:10F46300CE0D55FFA002EE00FFA004DF08CE00681A
:10F47300BD02EA8621BD044CBD02D027D3A700817B
:10F483000D2708088C00B026EF20C5CE0068BD0309
:10F4930031DF31BD037B4D261ADE04A600810D2624
:10F4A30008D62827AB9712200ABD074D27058610DB
:10F4B3007E0469963E9026973ED6282606BD02EA2C
:10F4C3007E0749FE010FDF37DE31DF04BD02A5DF12
:10F4D300225D26205CA60008810D26F8F7024C86E3
:10F4E300FF508D46DE22BC0D552707A600A7000856
:10F4F30020F4DE229612262FFE0D55D63ECB02F7C0
:10F50300026C8D269C22270709A600A70020F50977
:10F51300BD06700808DF22DE04A60008DF04DE2231
:10F5230008A700810D26EE7E01B0FB0D56B90D55DF
:10F53300D73A9739BD0CBB2407F70D56B70D55398C
:10F5430086907E04699664D663CE0D57BC0D55260E
:10F55300025C39E100220A26F8A101220426F25FA7
:10F56300398D030820E636860D08A10026FB3239C3
:10F57300BD01098108260B8C0068270D097A003E1E
:10F5830020EE811827037C003E39DF22CE0301A63B
:10F593000081042706BD044C0820F4DE227F001DF1
:10F5A300390D0A0000000004810D2702813A39BD9C
:10F5B3000B594F976297639764398DF6972897276E
:10F5C3009726BD0368812B2707812D260473002707
:10F5D30008BD0CEBC103270596277E0BF20897287D
:10F5E300840FC6047800647900637900625A26F4B4
:10F5F3009B6497647C002620D8DE04A60081202724
:10F60300070820F78DB40908A600812027F939DE01
:10F6130004BD0CEBC10226F00820F6BD0368DF042D
:10F62300DF22CE0111C605A1002612DF0ADE220861
:10F63300A600DF22DE0A085AC10226EB39085A2641
:10F64300FCA60027F7DF0ADE04DF22A600DE0A207D
:10F65300D4CE0062C6020CA6002A19862DBD044C26
:10F663007C001D200FA60085F025022707BD04445A
:10F673007C001D0DA600C5FF2706850F2502270761
:10F68300BD04487C001D0D085A2ADA39BD036F8179
:10F693000D2725BD031ADF04BD02A5DF22BD036FBD
:10F6A300810D26057C001B200B08BD0368BD031AD2
:10F6B3009664971BDE222003CE0D57BC0D552721E0
:10F6C300BD02EAC6010C8D9DA600810D27058D1C88
:10F6D3000820F508961B27E38B99192704971B200D
:10F6E300DA7E01B044444444840F8B30BD010C7E68
:10F6F300010636B680008401810127023239B680C3
:10F7030001810327023239869936BD02EACE04A06D
:10F71300BD02EF3236BD044432BD0448D619260378
:10F723007E01B0CE04A9BD02EFDE04098C0D57277C
:10F7330007A600810D26F408C6010CBD03C520E011
:10F74300074552524F522023042041542004BD0345
:10F753006FBD030826037E05447F0012812C2620FB
:10F76300D61D8620BD044C5CC50726F6C14722047E
:10F77300D71D2003BD02EA7C001208BD036820D117
:10F78300813B27F381222605088D6420497F0017DA
:10F79300815426069717864120068153262E8650CC
:10F7A300A1012628BD0371BD0A2EBD0626D66427F6
:10F7B30025961727075AD11D231C2002DB1D8620FF
:10F7C300BD044C7C001DD11D26F4200ABD0A2EDF8A
:10F7D30022BD03B1DE22BD0CE65A26037E04B186A8
:10F7E300317E04697D00122603BD02EA7E070CA662
:10F7F300008122270EBD0308270DBD044C7C001D8C
:10F803000820EC087E036886327E0469DF04BD0CA1
:10F81300EDC102262F7F002016481B80139721DE9F
:10F823002039A600087F00188DE25FA600810A2711
:10F8330006810B2701395CA60136A6023637BD03C4
:10F843006F33812826715D271308BD0A319664360C
:10F85300BD0B6ABD036F812C265D20024F364C978A
:10F863001808BD0A3108DF04329714329721329702
:10F8730020DE20A60097160808DF20BD030F96148C
:10F88300DE2009A10022309764BD030F9616915E16
:10F89300270223238B01199764BD0BFCBD0BD2BD3B
:10F8A300061C9620D621DB6499639720D721BD0BD4
:10F8B3006ADE207F00183986147E0469BD030F8633
:10F8C300039764BD0BFC9664369663365FD763D7A4
:10F8D3006496628D1232368D0A328D0B32368D0369
:10F8E30032201D444444448D17D663485937364863
:10F8F300594859976432D7638D08329B63976339AC
:10F90300840F9B64976424037C0063399662A70089
:10F913009663A7019664A70239DE06DF37BD036F3E
:10F92300BD0368BD056CDF0ABD036F81282620086F
:10F93300BD0364812926054F5F362018812C260FCD
:10F943009664270B3608BD0364C601812927058603
:10F95300407E0469966427F736DF04DE0A860A1BB5
:10F96300A7009608A7019609A702DE0832A7000898
:10F9730033E70008DF208B011936178B011916BDF9
:10F983000312D764BD030F329764BD0BFCBD05FFA3
:10F99300BD0CB923037E02A0DF08DE0408BD0368A3
:10F9A300BD03082707087E0680BD1F004F971297E7
:10F9B3001C9718972C961926037E01B0DE04860D3A
:10F9C300C63AA1002707E100270A0820F508BC0D65
:10F9D3005527E60808BD010CBD037B4D260BDE044D
:10F9E3008D0B270586107E0469EE006E00BD0CEBBF
:10F9F300C102261208BD0368813D2704812826061B
:10FA0300CE0123971C5F39BD018BBD0195FE010F0C
:10FA1300DF06CE0D577C001920B4DE04961C2603A6
:10FA2300BD0359BD096D7E070CBD036FBD0A2EBD15
:10FA330002A55D270586167E04695CD7197E072E0D
:10FA4300BD036F7F0013BD03688122260608BD0531
:10FA53004F203BBD0584DF33CE006896132607860F
:10FA63003F9713BD044CBD0109811826057F001380
:10FA730020E6A70008812C2709810D26E99712BDEE
:10FA830002EACE0068BD031ADE338D2DDF04812C1C
:10FA9300260708961227AF20AABD0308261396123D
:10FAA30027037E070CBD0109810D26F9BD02EA205B
:10FAB300F186457E0469BD0584BD066C7E036F96A1
:10FAC300192749BD036F971ADF0CDF0E203E9619E5
:10FAD300273A961A2739BD0359BD0368BD0584DF4C
:10FAE30033DE04DF35DE0EBD0A2EA600BD03082675
:10FAF30004DE0C200108DF0EDE35DF04DE338DB9B2
:10FB0300812C26030820D2BD030826037E070C861A
:10FB1300517E0469DF22DE0CDF0EDE2220EEBD0300
:10FB230059BD0A2E9664840F367F00120808A6007A
:10FB3300815427029712BD035BDF22324A2711E665
:10FB43000008C12C2604DF2220F2C10D26F1DE229B
:10FB5300D61227037E093A7E078CBD036FBD0A2E9A
:10FB6300A6008D63265C36A6018D5C322604E60171
:10FB73001B080836BD0A2E32840F80092B444848DF
:10FB8300B708EABD0BCCBD0CC620FE2F18203026CB
:10FB930014202C2C1020282D0C2024270820202E64
:10FBA30004201C201DDE04A6008154260FBD036F14
:10FBB300DF04BD0CEDC10326037E078C7E07387E70
:10FBC300070C86627E0469813B2306813E22025F25
:10FBD300395C39D61927E8BD036F7C001BBD0A2E9B
:10FBE30009BD02C608A60036A601369F37CEA0235C
:10FBF300BD0CB923037E02A07E078F86737A001B98
:10FC03002A037E04693233BD02A97E0792BD0582B1
:10FC1300DF33BD036F08BD0A2EDE337E066CBD03E2
:10FC230059368DE9DE08DF37DE0632A7009605096F
:10FC3300A700960409A70009BD0CB922037E02A000
:10FC4300DF067E070CBD0359DF1EDE06BC010F264F
:10FC530004DE042074080808A10026F0090909DF5E
:10FC63000608EE00DF04BD0584DF33BD036FBD0A64
:10FC73002EBD0B59DE33BD0B4CDE04A6008153278A
:10FC830008BD030F4C9764200ABD0371BD0A2E966D
:10FC930062971CBD0BD2CE0010BD066CBD0BCCBD54
:10FCA3000CC6D61C2B05062C122003062F0DDE06D0
:10FCB300080808DF06DE1EDF04200BCE0010BD0B94
:10FCC3004CDE33BD066C7E070C86817E04697F00A3
:10FCD3002C962C972D8D044D26F1399FFEBD0CE6F5
:10FCE300DF04C10126048621204A54C1032603BD33
:10FCF300030FDE04BD0CE6DF04C1042302C605586E
:10FD0300F70A6420FE202B201B2038202C200436E9
:10FD13000820CA3009D6189CFE2706325F8128279F
:10FD2300F25D270E4FD62C5AD12D260630099CFEA4
:10FD3300270486209EFEDE0439BD0B59DE04BD0375
:10FD43001A2059A601BD0CEDC1022628A600DF2208
:10FD5300CE017BBD03854D27CB7E0749863F36DE2B
:10FD6300227E0A3D864020F6BD030FBD0D32976407
:10FD7300DE222028D6FE37D6FF37D62D37D61837C2
:10FD8300BD058233D71833D72D33D7FF33D7FEBD05
:10FD93000B59DE20BD0B4C2005DE0408DF043009BF
:10FDA3009CFE2737323681282731BD0CED37549618
:10FDB3002C4AC1042704912D272181092304862479
:10FDC30020163233800648B70B2ECE0B3EEE00AD25
:10FDD30000BD0CC628C886237E0A947E0A520BD225
:10FDE3000BCC0C8A0BC40BFC0C1D0C9CA60097625D
:10FDF300A6019763A602976439CE003BE603E700AA
:10FE0300088C006226F67C002C39CE0064E600E7FD
:10FE130003098C003A26F67A002C390CCE0064A62E
:10FE230000A90319A700098C006126F337C60285D0
:10FE3300F026015FDA30D7301733398D030D20DC1C
:10FE4300CE00678699A000A700098C006426F4847D
:10FE53000FA701397F0030966516C40FD765972F1A
:10FE63009862972ED662C40FD7624D39966288F096
:10FE730097628D588DDE2A0A8DC106280973002FDB
:10FE8300200B8D97200A8D44BD030F8DAE7F00306C
:10FE9300962F84F0C60FD4621B9762398D2E8DB4D2
:10FEA300BD030FC605965F2708BD0B7B7A005F264F
:10FEB300F85A273D8D4A9662BD0B8C20E88D0DCEF6
:10FEC3000065BD0CC9260886227E0A947E0B6ABD96
:10FED3000BB4BD0B598D296F026F03C6058D21BD70
:10FEE3000BA08D2E85F02613BD0BA00C8D255A2655
:10FEF300EC962E8D9DCE005E7E0B6D7C006420E221
:10FF03008604CE00640C6900098C005E26F84A263C
:10FF1300F1390DCE0061965F840F975FA600A906A5
:10FF230019A700098C005E26F3398D3A270BD66298
:10FF33008D077C0064177E0BF27E03128D8E5FD7D4
:10FF430030966727EBBD0B598D828B99192716368F
:10FF5300BD0BB7BD0C003220F1DF3996399137263E
:10FF630004D63AD13839CE00625F6D02260E6D0198
:10FF7300260AA600840F2604A700C604A60046840A
:10FF8300081B9A300639BD03682002A600C601810A
:10FF93000D27175A3680282B108118230E81322300
:10FFA3000681362604C60ACB023239DF24CE0D1968
:10FFB300B70D14E600DE2420F005040A060107004D
:10FFC3000B03030303030303030303010101010100
:10FFD3000809C608CE0000A603484848A8034848B5
:10FFE30069006901690269035A26ECA600819F2210
:05FFF300E18B0019394B
