:10E00000FEA0006E00FEA0066E0020077DA08C27FB
:10E01000FE20318D63815326FA8D5D813927ED8194
:10E020003126F07FA00A8D2D8002B7A00B8D188DB0
:10E03000247AA00B2705A7000820F47CA00A27D388
:10E04000863F8D317EE0E38D0CB7A00C8D07B7A025
:10E050000DFEA00C398D5348484848168D4C1B16B0
:10E06000FBA00AF7A00A3944444444840F8B308152
:10E070003923028B077EE1D17EE1AC8DF808A60042
:10E08000810426F7398DC0CEE19B8DF2CEA00C8D98
:10E0900037FEA00C8D34FFA00C8DDD812026E88D8D
:10E0A000B409A700A10027DF20968DCC80302B94E7
:10E0B00081092F0A81112B8C81162E88800739A6A1
:10E0C000008DA4A6000820A38DF58DF3862020A541
:10E0D0008EA042BFA0088603B780004CB78011BD58
:10E0E000E2A3018EA042CEE19B8D938D8B168DDC39
:10E0F000CEE3D36D002714E1002604EE016E000884
:10E10000080820EF8611B7800020D87EE04001BECD
:10E11000A0083BBFA008306D0626026A056A06FE0D
:10E12000A008088DA58DA38DA18D9D8D9BCEA008E7
:10E130008D9620AF0D0A00000000533104BDE29916
:10E14000FEA002FFA00FB6A005B0A010F6A004F23A
:10E15000A00F260481102502860F8B04B7A0118022
:10E1600003B7A00ECEE134BDE07E5FCEA0118D26B8
:10E17000CEA00F8D218D1FFEA00F8D1A7AA00E2626
:10E18000F9FFA00F5337308D0D33FEA00F09BCA04F
:10E190000426B37EE2C5EB007EE0BF0D0A00002A34
:10E1A000048D4B6E00FFA012CE800039867F8DF566
:10E1B00037E6112A04A4102007E6005424F3A40132
:10E1C0007DA08B2610817F200A0101010101010140
:10E1D00001200627DC33FEA0128DCA37F6800054DA
:10E1E0005424F9B78001BDE3F833FEA012397EE074
:01E1F00047E7
:10E29900C6204FBDE1D15A26FA398615B780007FCD
:10E2A900A08BBDE4E0BDE4F2CEE2BABDE07E390167
:10E2B900010D0A0A0000544255470400CEE3A1BDEE
:10E2C900E07E20428D46FFA0808D4108FFA00F8D82
:10E2D9003BFEA080A600FEA00CA70008FFA00CFE34
:10E2E900A08008FFA080BCA00F26E920198D1DC6BB
:10E2F90040CEE394BDE07EFEA00CBDE0BF8D0A8D4B
:10E30900088D065A26F47EE0E37EE0CCBDE0478D19
:10E31900F8397EE1D1C60CCEA0805A26037EE040B2
:10E32900BDE1AC810D2705A7000820EE860A8DE224
:10E339008604A700398DDEBDE2994C8DD58DD38D2C
:10E34900D18DCFCEA080BDE07E7EE1408DC7C604D1
:10E359008D3C81012712815326F48D32813926EEB5
:10E36900CEE391BDE07E20E65A26E5CEA080BDE150
:10E37900ACA1002709BDE1AC810A26F920D00886A5
:10E3890004A10026E97EE00A454E440D0A04B68040
:10E39900004424FAB680013920533904BDE3150835
:10E3A90008FFA00FBDE315CEA00CE601E004A6000E
:10E3B900A2032607C17F230A7EE0404C26FAC17FCB
:10E3C90023F6E700BDE0BF7EE0E347E10F4DE085BE
:10E3D90052E11F50E13D4CE00A56E33E49E35554F2
:10E3E900E3A54BE2F659E2CD4AE1A15AC000003655
:10E3F900F68012C401275E8100275A817F27568142
:10E409000D2609B6A08D5FBDE5E4207B810A261E95
:10E41900B6A08D8101260EB6A08EBDE492168601A6
:10E42900BDE5E420624CF6A08EBDE5E420598108E3
:10E43900261CF6A08E27505AB6A08DBDE5E486208D
:10E449008DADB6A08DF6A08E5ABDE5E42039810CBC
:10E459002605BDE53F203081202D2CF6A08EC11068
:10E46900261FF6A08DC101270D36860D8D81860ADE
:10E47900BDE3F832200BBDE4923686015FBDE5E4C9
:10E4890032BDE5797CA08E3239365F8601CB104AE0
:10E4990026FB1BCEA08FFFA0B1F6A0B21BB7A0B080
:10E4A900B6A0B18900B7A0AFFEA0AF4F5FBDE5E44C
:10E4B900C610A60037BDE5797CA08E33085A26F22E
:10E4C90086015FBDE5E4C610862037BDE5797CA0ED
:10E4D9008E335A26F532394FB7801386FEB780122C
:10E4E9008604B780137F801239CE04E28D6F86309F
:10E4F9008D6FCE02718D6686308D66C6118D5A86F6
:10E50900308D5EC6118D5286208D56C6118D4A8674
:10E5190028BDE5C6C6098D418608BDE5C6C6098D73
:10E52900388606BDE5C6C6098D2F860EBDE5C6C669
:10E53900098D268D0139FFA0B38601BDE5C6C6FF49
:10E549008D177FA08D7FA08ECEA08F8620A7000873
:10E559008CA0AF26F8FEA0B3395A26FD390926FD4D
:10E56900393684F08A08B7801284F7B780123239B5
:10E5790036FFA0B316C4F0CA0CF78012C4F7F780AF
:10E5890012484848488A0CB7801284F7B780125F4E
:10E59900B6A08D2705CB104A20F9FBA08E17CEA077
:10E5A9008FFFA0B1F6A0B21BB7A0B0B6A0B1890089
:10E5B900B7A0AF32FEA0AFA700FEA0B3393616C48C
:10E5C900F0CA08F78012C4F3F78012484848488A0D
:10E5D90008B7801284F3B780123239B7A08DF7A03B
:0DE5E9008E4848484848488A801B8DD1392B
:08FFF800E000E113E005E0D098
:10C10000000000000000000000000000000000002F
:10C11000000000000000000000000000000000001F
:10C120000E350000000000007FFD1EE200001EE250
:10C130000000000000B500B600B5A07F1EE22000A0
:10C14000000000007FFF1EE2000000000000000071
:10C15000000000000000000000000000001DB11EF3
:10C160002F000000000075172500000000000000EF
:10C1700000000000000000000000000000000000BF
:10C1800000000000000000007F00047E010F01128B
:10C19000800040307F000000000000000000000030
:10C1A00000000000000000000000000000B500B525
:10C1B000504154434800000000000000000000000F
:10C1C000000000000000000000000000000000006F
:10C1D000000000000000000000000000000000005F
:10C1E000000000000000000000000000000000004F
:10C1F000000000000000000000000000000000003F
:10C20000BD0B917E0BA67E03CC7E03BD7E03477ED5
:10C21000E1D17EE1AC7E17257E03CC7E03BD7E039B
:10C22000477E03CC7E03BD7E03477E03E27E03D7B9
:10C230007E03527E03E27E03D77E03527E03E27EBC
:10C2400003D77E03527E03E27E03D77E03521EE2B3
:10C25000000312180F5F037E13C57E13C57E13C53E
:10C26000524E4400176354414228001254494E5420
:10C270002800172643485224280019024142532817
:10C2800000175B53474E2800174453515228001C97
:10C290002E4C4F4728001B2B45585028001BC353DA
:10C2A000494E28001AB6434F5328001AC64154413C
:10C2B0004E28001C4B5045454B280017DC504F536F
:10C2C0000017D654414E28001A6D56414C280018CC
:10C2D00050415343280018274C454E280018414C24
:10C2E000454654242800187E5249474854242800C3
:10C2F00018DD4D4944242800189053545224280036
:10C300001926464E0019CF555345522800171700DD
:10C31000BFFB4C495354000C5E4E4557000B9950DF
:10C3200041544348000CAE474F535542000EC1479D
:10C330004F544F000EE34F4E000EA25448454E009E
:10C340000E905052494E5400122D4C45540013B2D9
:10C35000494E505554000F90494600164D524541E4
:10C360004400111F44415441001428524553544F76
:10C37000524500119A454E44000BAB504F4B452897
:10C380000017B952455455524E000F0C44494D0008
:10C390001450444546001957464F520014F34E4579
:10C3A00058540015BD52454D001423545241434585
:10C3B0004F4E00141854524143454F464600141E38
:10C3C0004C494E453D0019124449474954533D00DC
:10C3D000140653544F50000F20080013B252554E0C
:10C3E000000C28434F4E54000E314C4F4144000D79
:10C3F0000B53415645000CC7415050454E44000D6B
:10C400000E504F52543D0013F4544F00101F53541C
:10C41000455000101F5245414459002044454C45A9
:10C42000544544001016FFFFFFFF0052452D454EB6
:10C43000544552004552524F522023200020494E6D
:10C44000204C494E452000DE908613A7008611A798
:10C450000039DE906F016F036F006F026300863E4C
:10C46000A701862EA70339A6008D0DA60008200C73
:10C470008DF58DF38620200E44444444840F8B3088
:10C48000813923028B0737368D17DF8ADE8CAD00AA
:10C49000DE8A323339DF8A37DE8EAD00DE8A36201F
:10C4A000113736B68000472411B68001B1015626F7
:10C4B000097E0BAB010101010101323339DE90A687
:10C4C000004724F9A601847F817F27F1DE90E600F2
:10C4D000575724F8A70139DE90E6032AFAA602A7E7
:10C4E0000239DE90817F2710A700C636E701C63EDD
:10C4F000E701E6012AFCA60039CE031BBD045F203C
:10C5000008863FBD0386BD052ECE00B0BD03954D08
:10C5100027FA810A27F6811527F2B1015327DA811C
:10C520000D2730B10154260EB60155BD03868C008F
:10C53000B027D90920D67D008526038C00F8260770
:10C540006F00C6217E0BEBA7000820C08623BD0329
:10C550008620B66F00DFAE96852603BD046E398D4A
:10C5600006200BBD038608A600847F26F6398D15AC
:10C57000CE04788DF28D23390D0A15FFFFFFFF00E1
:10C58000FFFFFFFF00DF38DE3A0909DF3A36963851
:10C59000A7009639A70132DE3839DE3AEE007C007A
:10C5A0003B7C003B398DDEBD06500F9F2835DE3ABF
:10C5B000EE0020148DCFBD06500F9F2835090909C4
:10C5C00009090909DF5DEE00C60532A700085A26F1
:10C5D000F93232A7009E28010E8DBF398DA70F9F1B
:10C5E0002835200B8D9FBD06500F9F28AE0034C606
:10C5F00005DE5D32A700085A26F932A7016F009EBA
:10C6000028010EBD06498D9239BD0370BD0485EE2B
:10C610000009095CA60026FA0808085A5ABD0467F2
:10C620008D0C7F0040BD049A0808087E045F3686A2
:10C6300020BD12B33239BD0ABFBD062D251A16A67C
:10C6400001BD062D2514BD0B13EE00AD00BD06493E
:10C65000DE34313131310C390B39BD063A240781D2
:10C66000242703098620080837E600C12826030886
:10C670008A8033BD0485DE2A9C460D2709E1002609
:10C680000CA10126080CDF63BD049A0A396D012B49
:10C690001036A6018124322603BD065FBD06752033
:10C6A000D7EE0420D3BD03A17F00868D89280139F0
:10C6B00036372541DF34DE634D2B1C0808DF63DE8F
:10C6C0005D9663A7009664A7018D7E333281242690
:10C6D000029786DE340C39BD142E2405BD06852054
:10C6E000015F37BD068517E601C1A42602D7863350
:10C6F000BD14B620C8DF34DE63E700A7014D2A1958
:10C70000C60AE702E703BD142E25035FE703A6026E
:10C71000BD148E6D0327CA20C3A60181242605BD42
:10C72000065F9786BD0675DF46DE63208E36847F02
:10C7300081412B0F815A2F0E20093681302B048125
:10C74000392F030D32390C3239DE5D8D29DF5D3929
:10C75000DE5D8D0320F7090909090909090939373F
:10C76000D63EC006DFAADBABD7ABC600D9AAD7AA94
:10C7700033DEAA200808080808080808089C442B8B
:10C78000037E0E2C398D044D260C39BD04858DC0D9
:10C79000A60681052F05C6017E0BEB4F5F6D002BB2
:10C7A000F56D062F215849D7529751584925E7581A
:10C7B0004925E3DB52995125DDEB00890025D7BDE2
:10C7C00008B16A0626DBBD049A39BD0ABFBD05A5BE
:10C7D00025097D00862627BD04E439BD102F2501DB
:10C7E000398128261508BD078FBD0ABF8129260279
:10C7F0000839C61301DF347E0BEBC60620F7C624CA
:10C8000020F38DC6BD0ABF815E27013908DF34DE03
:10C810005DBD0657E600372706BD1B2EBD0649DE67
:10C8200034BD0ABF812D2608088D9FBD087D2002DA
:10C830008D98DF34DE5DBD0657A600335D26084DBA
:10C840002705BD06502022364D2A03BD087DBD0AAE
:10C850003BBD1BC6324D2A0EBD0993BD1BA8BD06AC
:10C8600049BD09C32003BD0649DE3420978D93BD21
:10C870000ABF812A260B08BD0ABF8D86BD0A3B2050
:10C88000EE812F260908BD0702BD09C320E139BD8D
:10C890000ABF7F0086812D2608088DD1BD087D2026
:10C8A00007812B2601088DC5BD0ABF812B260808EC
:10C8B0008DBBBD095C20F1812D2608088DAFBD0917
:10C8C0005920E54D39BD04858D497D00862605BD7D
:10C8D000049A20BBBD0F7ABD049A8D379689817F5B
:10C8E00025037E18A0BD0ABF812B261E088D247D3E
:10C8F00000862718BD0485BD0F7A09E601E7000808
:10C900005D26F8DF88BD049A20D24D39C624DF3475
:10C910007E0BEBBD0ABF812226249786080F9F2835
:10C9200035DE88328122270BA700084D26F5C60484
:10C930007E0BEB6F0008DF88309E28010E39BD0AA0
:10C94000BFBD05A52401397D00862725DF34BD063E
:10C9500050EE000F9F2835DE88D63E32A7004D27C7
:10C9600006085A26F66F0008DF889E28010EDE347E
:10C9700039BD065039BD0485BD0676200CBD048541
:10C98000DE5D09092006BD0485BD06783637C6067A
:10C990008699A000A700095A26F6BD06770DC6069F
:10C9A0008600A90019A700095A26F5BD049A33325A
:10C9B00039368D08A600840FA70032393637DF5785
:10C9C000C604DE57BD0678680086050969004A2658
:10C9D000FA5A26EE3332393637DF57A60084F097FD
:10C9E00053C604DE57640086050866004A26FA5AD4
:10C9F00026F1DE57A6009B53A700333239BD0485CC
:10CA0000BD06507F0056BD13922419A6002A0B972D
:10CA100056BD0886860FA400A700A60026088D91A3
:10CA20006A0620F66F066F05A60681652D1537C6C6
:10CA3000058699A700085A26FA8664A701BD0659FB
:10CA40003320D1819D2E03BD10E47D00562703BD08
:10CA50000886BD0649BD049A39BD087DBD0485BD63
:10CA60000650BD13922428BD08D76C06BD0650BDE4
:10CA700013922411BD08D76C06A606A10D27082D18
:10CA8000F38D1020EF8D0C8D23BD0649BD08FDBD33
:10CA9000049A39DE5D3736C607A60036A607A7001A
:10CAA00032A707085A26F2DE5D3233393637DE5DAB
:10CAB000C6060CA605A90C19A705095A26F5DE5DC0
:10CAC000333239BD0485BD10E4BD0650BD13922537
:10CAD00005C6087E0BEB60068D38BD08D7BD08750E
:10CAE000860B5F5C8DC66D002AF95ABD08758DBC3A
:10CAF000BD0875BD0676BD0676BD08BCEB05E7052D
:10CB0000DE5DBD08BC4A26DABD06498D867C005034
:10CB10002059BD08D74F6D002A05BD08868680BD07
:10CB200006506D002A05BD08868B80974AA606AB85
:10CB30000D28058678240140975039BD0485BD062F
:10CB4000508DCFDF59BD0649BD0993BD10E486095C
:10CB5000DE59E600BD08B15D2706BD09AC5A20F7D5
:10CB6000DE5DBD0676BD08D74A26E5BD0650BD0987
:10CB7000939650A706BD0649BD08FD7D004A2A03CD
:10CB8000BD087DBD049A399632D633D03192302516
:10CB900028DE2E9C2A27229630D631E001A20025DD
:10CBA0001A26035D2716DFAA4FE604DBAB99AAD746
:10CBB000AB97AADEAA9C2A26DEDE2A0DDF2C39A638
:10CBC00000812026030820F74D39BD102F2405C60B
:10CBD000077E0BEBDFACBD0650E60623F2C1042E48
:10CBE000EE8605104D2706BD08D74A20F7A6019707
:10CBF00030A6029731DEAC0C39DE34A600084D2693
:10CC0000FADF3639DE34A600084D2704813A26F6CD
:10CC1000DF3639DFAC0F9F28CE015F2016DFAC0F67
:10CC20009F28CE0308200C8D96DFACDF340F9F28A1
:10CC3000CE02119EAC340832812027FB815F2F0287
:10CC400084DFE60027161127ED08BC015127178C59
:10CC5000020C271AE60026F1080820D7089FAC9F8F
:10CC6000349E28010E399E28010ECE02DB397E103B
:10CC70001FFE014EDF2EDF2ADF464F973297339794
:10CC800040978697879754CE1725DF678620973E73
:10CC900039BD1EB0B6015097968DD68640979286C4
:10CCA0003097937E0C28B6015097969E44CEA07F75
:10CCB000DF3A7F0085BD11B78613BD03868614BD9C
:10CCC0000386BD046ECE0315BD045F7F0040BD0426
:10CCD0004CCE00B0BD0ABFBD063A2505BD0D6A2089
:10CCE000EA4D27E7BD0B27EE006E009E44010101CF
:10CCF000010ED720BD11B7BD046EDE5BEE00DF3044
:10CD0000963426067F00307F0031CE0334BD0467A1
:10CD1000CE0020BD0367CE033DBD0467CE0030BD0D
:10CD20000370BD046E7E0BABDE2EDF3CDF36CE0023
:10CD300075DF65CE1E2FDF5FDE2ADF4686550908C8
:10CD40008C8000270EA70001010101A10026046FBD
:10CD50000020EC09DF44DF947F00957E0E35BD1185
:10CD6000BBCE0324BD045FDE34BD0ABF2729BD0A44
:10CD7000CADF34BD0A91DF24DE34BD0ABF270408B0
:10CD8000BD0ACA4FC601DB3119D731993019973026
:10CD9000BD0A91DE242006DE2ADF2CDE2E9C2C2705
:10CDA0000A9C2A2706BD05090820F27E1428BD0A20
:10CDB000F9CE0E35DF2096213696203634343434C1
:10CDC00034BFA0087EE0E3BD11BB8612BD0386BD63
:10CDD0000D54BD0D54BD0D54BD0D5FBD0ABFBD0644
:10CDE0002D250A168604BD038617BD0386DE2E9CFC
:10CDF0002A270D8602BD0386BD0509088D5820EF40
:10CE0000B60156BD03868D577E0BABBD0B71BD11B0
:10CE1000BB86119785BD0386BD0ABF16BD062D25AD
:10CE20001737DE8EAD003381032603BD03958104E1
:10CE300026EFBD03951126E9BD0395810226F9BDB4
:10CE40000395BD063A25F4CE00B0BD040FCE00B068
:10CE50008D1820E48D005F4F4A26FD5A26F939C609
:10CE6000328600BD03865A26F839BD0ACABD0A8734
:10CE70002411DEACBD0ABF271FDE2C9C2A271A8D89
:10CE80004E2015DEACBD0ABF260ADE2A9C2E2708DE
:10CE90008D0F20048D0B8D37398D34DE30DF32203D
:10CEA000F70F9F28DE2C9E2A08080808083434341F
:10CEB0003434A60034084D26F99F2A9F4635DE2CCF
:10CEC0009C2A270632A7000820F69E28010E39DE8C
:10CED000ACBD0B27DF48DE2ADF20D6AFD0ADCB06B6
:10CEE00037DB2B8600992A91442441D72B972ADEE1
:10CEF0002ADF46330F9F2835DE209C2C270609A603
:10CF0000003620F6DE2C9630A700089631A70008E0
:10CF10009648A700089649A70008E700089EAC3489
:10CF200032A700084D26F99E28010E39C6147E0B43
:10CF3000EBDE5BDF36CE1DB1DF5DDE94DF88DE36F3
:10CF40009C2A26037E0BAB09A60008813A2605DF42
:10CF5000347E16967D003627EBDF5B7D0087272029
:10CF6000BD0485BD11B7BD049A865BBD03868620CE
:10CF7000BD0386BD0370865DBD0386BD046E2002C1
:10CF80000808080808DF34090909EE00EE006E0001
:10CF9000DE34BD0ABFBD063A24497E1696C6207E01
:10CFA0000BEBDE34BD078FBD06855D27F05AD755E4
:10CFB000BD0B27EE008C0EE3272C8C0EC12705201D
:10CFC000DC7F0055DE36BD0B04DE658C0085260552
:10CFD000C6097E0BEB9636A700089637A70008DF38
:10CFE0006520037F0055BD03A1DE34BD0ACA7A0067
:10CFF000552B0ABD0ABF812C26A30820EEBD0A8747
:10D000002405C6077E0BEBDF367E0E35DE658C0011
:10D01000752605C6107E0BEB0909DF65EE0020E7DB
:10D02000BD11B7CE02D2BD0467BD052EDE36BD03ED
:10D0300070BD0B04DF5B7E0BABBD0485C6FFD74321
:10D040008D388D07BD049A397F0043DF88BD0650B7
:10D050000F9F28DE8835DE5DEE00D63E32A7007DCC
:10D0600000432604812C27094D2706085A26ED2067
:10D07000036F0034309E28010E3936DE889C9427D9
:10D080000B099C94270609A60026F70832DF883989
:10D09000BD11BB96342605C6027E0BEBDE34BD0AFD
:10D0A000BF8122260DBD07C5812C26EB08DF34BDCC
:10D0B00011A39696810A250A9785BD04097F0085EC
:10D0C0002003BD0401CE00B0DFACDE34BD13AB24C1
:10D0D00040DF34DEAC7D008626158D48241C4D27AC
:10D0E00006CE032BBD045FBD0401CE00B020E6BD1B
:10D0F0000ABF010101BD0F482003BD04B4BD0ABF32
:10D10000812C260108DFACDE34BD0ABF08812C2744
:10D11000BB097F0040813A27034D26037E1428C6B1
:10D12000037E0BEBBD0ABF974A08812D2704097FB8
:10D13000004A4F974C974D974EBD10E4D65DD726C9
:10D14000D65ED727C605BD0ABFBD063A240B812E81
:10D150002605974D0820EF0D390908A600BD063AAF
:10D1600025428030260F7D004C260C7D004D27EA9D
:10D170007A004B20E5974CBD0485DE265D27167DA1
:10D18000004E2608AB00A700085A20064848484829
:10D19000A70073004EDF267D004D26037C004BBDAB
:10D1A000049A20B67D004D2608812E2604974D2036
:10D1B000A95F8145261408A600812D2709812B2609
:10D1C00001088D362004088D3150964B1BBD048517
:10D1D000DE5DA706BD0649BD049A7D004A2703BD52
:10D1E000087D0C39BD048537C607DE5D6F00085A1F
:10D1F00026FA7F004B33BD049A39A600BD063A24B7
:10D2000005C6027E0BEB80301608A600BD063A2547
:10D210000D581758581B16A60080301B160839DE0B
:10D2200034BD13AB2469DF34DE3C9C2E273E7D00E9
:10D23000862720BD0ABF272A81222705BD0F482047
:10D240003BDF3CDE94DF88DE3CBD0813250ABD0FC2
:10D25000392029BD1024242101A6002705C6197EE6
:10D260000BEB9C2A27F7A600084D26F6A60381693A
:10D2700026F0080808080820B5BD04B4A600812CD3
:10D28000260108DF3CDE34BD0ABF08812C27920945
:10D29000813A27034D26C67E1428DE2EDF3CDE347D
:10D2A0007E1428BD0485BD0F7AA6002706BD12B3E3
:10D2B0000820F6BD049A3996962025DE34BD0ABFB3
:10D2C000812326F308BD078F2710812C270B813B74
:10D2D0002707813A27047E13C508DF34BD0685176A
:10D2E0008108250C7F0090979186091648482010E8
:10D2F0001648489191260139369791868097903249
:10D30000481BCE0106DF8CDF8E9B8D978D8B03979C
:10D310008F9690270DDE90A60381FF2605C6267EF8
:10D320000BEBDE8E0808080FAD00010E398D8CDE88
:10D3300034BD0ABF813A27034D263109A600088172
:10D340003B2706BD046E7F004008DF367E0E357E2B
:10D350000BEB0101BD17B1BD049EBD06855AD0403F
:10D360002F06BD052E5A26FA9E44200FBD07C57D07
:10D37000008626048D642003BD11A3BD0ABF812C45
:10D38000260E08964016C4F010270ABD052E20F37D
:10D39000813B260B0896902698862C8D1620924D60
:10D3A000278F813A278BC60620A5862E20054F841D
:10D3B0000F8B3036BD038632812024013937D640A9
:10D3C0005C7D00922710D193250CD19224048120FA
:10D3D0002604BD046E5FD7403339BD04859654974B
:10D3E000A9BD06504F974D6D00260D7D00A9262042
:10D3F0008DBCBD049A7E052E6D002A07862D8DB347
:10D40000BD0886A60681092E3C81FF2D384D2E15BC
:10D410008D9C8D96974D6D062A278D927A00A927AF
:10D42000D16C0620F17D004D2617A6008D81BD0828
:10D43000B16A0626F57D00A926048D5624B4BD12D6
:10D44000AA8D3620ADA600BD12AFBD08B1BD12AA8F
:10D450008D278645BD12B3E606813A27035A2A0670
:10D46000862DBD12B3504F4CC00A2AFB4ACB0ABDD1
:10D4700012AF17BD12AF7E12F2D6A98D15240DA6DC
:10D4800000BD12AFBD08B15A26F120057D0054261B
:10D49000EE39BD0485DE5D37C6066D002607085AE5
:10D4A00026F80C20010DBD049A3339BD05A52508C9
:10D4B0000D39DE348DF52505C6127E0BEBBD0ABF96
:10D4C00008813D2704C60620F17D0086260FBD0792
:10D4D0008F813A27034D26EDBD04B4204BBD07C50F
:10D4E0007D008626037E080C813A27034D26D6BD93
:10D4F0000F392034DE34BD078FBD068517BD11E01E
:10D50000DE34D7962022DE34BD078FBD0685C10AE2
:10D510002502C609D754201086FF9787200A7F006E
:10D52000872005BD0AF92003BD0B047E0E35BD041E
:10D5300085DE34BD078F08812C270B8129261DDF4E
:10D5400034BD049A0C39BD06E6DF34BD049A0D39AA
:10D55000DE347F0086BD053629022505C6057E0B13
:10D56000EB4D2AF8DF34DE63E700A7018DC0240508
:10D57000BD068520015FE703BD068517A7028D0E56
:10D58000DE34BD0ABF08812C27C8097E1428BD04DB
:10D5900085E601C1A42602D786E6038D197D0086A3
:10D5A0002703BD065FBD0677DF46BD049A9646A7F2
:10D5B000049647A705394D2605C6157E0BEBA1023B
:10D5C00022F7E10322F336A60297515D27155A2769
:10D5D000129651BD06777D00862703BD065F4A2659
:10D5E000F220EB32BD06777D00862703BD065F4A39
:10D5F00026F239DE34BD13AB25037E13B87D0086D9
:10D6000026F8DF34BD0B04DE5DBD0657A600E6013B
:10D610009751D752CE1E2F9651D6529C5F271CA1F0
:10D62000002610E101260C9636D637A10E2604E11D
:10D630000F2708BD0675BD067520DC8C1EAF2605BC
:10D64000C6167E0BEB9651D652A70008E70008DFFE
:10D650005FDE34BD0ABF08813D27037E13C5BD07C9
:10D660008FBD04B4BD0B1D8C030C26EFDE34BD074B
:10D670008FDF34DE5FBD04A5BD0677DF5FDE34BD1E
:10D680000B1D8C03132609DE34BD078FDF34200306
:10D69000BD1BA8DE5FBD04A5BD0677DF5FDE34BD20
:10D6A0000ABF813A27034D26B208DF36DE5FD63641
:10D6B000E70008D637E70008DF5F7E0E35DE34BDB1
:10D6C00013AB25037E13B8BD0ABF813A27034D264D
:10D6D000D608DF36BD0650A600E601DE5F8C1E2FA1
:10D6E0002766DF5F8C1E2F275BBD0656BD0656A141
:10D6F0000026EFE10126EBDF61EE00BD04DCDE6118
:10D70000BD067586026D002A028B03974FBD04DCAF
:10D71000BD095CCE006FBD04A5BD0649DE610808E9
:10D72000BD04DCBD16DB2407DE61DF5F7E0E35CE77
:10D73000006FBD04DCDE61EE00BD04A5DE61EE0E0F
:10D74000DF3620E8C6182002C6177E0BEBDE34BD9C
:10D7500007C58D4B974F7D0086272FBD07C57D00E0
:10D760008626037E080CDF34BD0F7ADF20BD0F7ADA
:10D770000F9F2835DE20324D2707A0002605082000
:10D78000F5A6009E280E8D5B2007BD078FDF348D28
:10D790004A24037E1423DE34BD0B27EE006E00BD49
:10D7A0000ABF08813D2603860039E600813C261326
:10D7B000C13D260408860239C13E26040886033985
:10D7C000860139813E2705C6067E0BEBC13D260446
:10D7D00008860539C13C27E4860439BD0959BD06D0
:10D7E00050A60036964F4848CE16FDDF209B219765
:10D7F0002186009920972032DE204D6E00271620CA
:10D80000122B12200E2B0E20F4260A200627042BA2
:10D81000022A020D390C39BD17ABBD0485DE67AD98
:10D82000000FBD049A39BD17ABC609E0065D2F088D
:10D83000BD08D76C065A20F56F05BD0649BD08FD29
:10D84000BD0650398D65A6002710974ABD1BA8BD9F
:10D8500006507D004A2A03BD0886398D4E6D002A88
:10D86000F920F4DE34BD0ABF8128260F08DF348D8D
:10D870003ABD13922405BD06492008CE00696C000C
:10D88000BD04DCCE1CC7BD04DCBD0A3BBD0650BDDB
:10D8900008B1A60136A603A70132A7036F06BD068D
:10D8A00049BD08FDCE0069BD04A5398D04BD0650F3
:10D8B00039DE34BD06E6DF3439BD142E25037E067D
:10D8C000F2BD068537BD068BD7529751DE5133E73F
:10D8D00000DE347E142896404C8D11398DD3BD0660
:10D8E0008BD7529751DE51A6008D0139BD0485DEDC
:10D8F0005DBD10E4C609E7065F80645C24FB5A8BBB
:10D9000064E704BD08BC5F800A5C24FB5A8B0AEB09
:10D9100004E704BD08BCAB04A704BD0649BD08FD6F
:10D92000BD0650BD049A398D47A6000881292703FA
:10D930007E06F2DF34BD0F7AA600BD17EC7F0086AD
:10D94000398DE44F4CE600085D26F94ABD17EC39E5
:10D950008DD5BD10242405C6277E0BEBBD0650399E
:10D960008D0EBD0ABF812C27037E06FA08DF3439ED
:10D97000DE34BD07C57D008626037E080C398DE0A8
:10D98000BD06E6DF34BD06855C37C1802412202049
:10D990008DCEBD142EC67F2403BD0685C18025050E
:10D9A000C6257E0BEB5C37BD0685C18024F2174A85
:10D9B000BD0F7A084A2AFC09324A0F9F2835DE88B3
:10D9C0004D2B0833E700084A5D26F5096F00089ED5
:10D9D00028010EDF88C6FFD786BD0650398D81BD70
:10D9E00006E6DF34BD0685C18024B5BD0F7A37E673
:10D9F00000084C5D26F94A3336102A014F16DE889E
:10DA000020B1BD17B1BD0685DE88E700086F0008AC
:10DA100020C1DE34BD078FBD0685D792175757103A
:10DA20004C97937E1428BD142E24037E080CDE8CA4
:10DA3000BD0485964036CE194FDF8CBD12DA329781
:10DA400040BD049ADF8CDE88096F00087E18D3DEA3
:10DA500088A70008DF8839DE34BD0ABF276C8146FD
:10DA6000266808A600814E266108A600BD062D2561
:10DA700059BD0AC581282652BD0AC52A037E14282D
:10DA80008A80A700BD05362941C47FD7529751DF50
:10DA900034DE63E700DE34BD0ABF8129262CBD0ACF
:10DAA000C5813D262508E600C13A271A5D2717D112
:10DAB0005226F2A601BD063A24028620915126E59F
:10DAC000CA80E70020DF097E1428C6227E0BEBDE29
:10DAD00034E600BD0AC58128264E08BD0485DE2E29
:10DAE0009C2A2744080808A6000881962705BD0A35
:10DAF000FB20EDBD0AC50808A6001126F1BD0AC528
:10DB000008BD05A52522BD0AC5BD0AC5DF24BD0483
:10DB10009ABD06E6BD04B4BD0485DE24BD078FBDF5
:10DB20000650BD049ADF3439C6237E0BEBBD17B116
:10DB30008D66CE1CD9BD04DCBD09C3BD0650BD1722
:10DB400029BD0649CE1CD9BD04DCBD0A3BBD09591F
:10DB5000BD1A98CE1CD3BD04DCBD0959BD06506D5D
:10DB6000002B09CE1CD9BD04DCBD0959398D47BD38
:10DB700006498D5A6D0026088601A700869AA706D9
:10DB8000BD0649BD09C3BD1B0B398D0C8D0ABD0AED
:10DB90003BCE0097BD04A539DE5DBD0657A600A7A4
:10DBA00007089C5D26F77E0649CE009DBD04A5BDF5
:10DBB00010E4BD064939BD1A2D8DCF8DECC607CEB8
:10DBC0001D458D222045BD1A2D8DBFBD0650BD1BA4
:10DBD000A88DD6C607CE1D6F8D0C8D2FA60681FA97
:10DBE0002C03BD10E439DF4137CE0097BD04DCBD06
:10DBF0000A3BDE41BD04DCBD0658BD095C335A2634
:10DC0000E5CE009DBD04DCBD0A3B39BD10E4DE5D00
:10DC1000BD0657E606E70D6D00270AC650E70BBDA7
:10DC20000649BD095CBD06506F0439BD17B1BD1072
:10DC3000E4DE5DBD0657A606C601E706D74EE60040
:10DC40002F61C10325056F067F004EBD0649CE1C1E
:10DC5000E5914E27182A0B36BD04DCBD0959324C1C
:10DC600020EC36BD04DCBD095C324A20E1CE00A3C5
:10DC7000BD04A58D33BD0959BD1A988D3ABD095C07
:10DC8000BD09C3BD1A8ABD1AA9C609CE1D1BBD1A7E
:10DC9000E68D24BD0A3BCE00A3BD04DCBD095CBDFE
:10DCA000065039C6287E0BEBDE5DBD10E48601A769
:10DCB00000A706BD064939DE5DBD10E48602A70057
:10DCC0004A20EEBD17B1BD1A98CE1CE5BD04DCBDDF
:10DCD00009C3BD0650BD1729E600BD0649BD1A9807
:10DCE0005D2A09BD087DBD0685502003BD06853728
:10DCF000CE1CE5BD04DCBD0A3BBD0959CE1CDFBD11
:10DD000004DCBD0A3BCE0097BD04A5BD1BA8BD1A0F
:10DD1000A9C60ACE1DABBD1AE6BD1A98BD0A3BBD09
:10DD20001A98BD0A3BBD1B0B33EB06E70639BD173E
:10DD3000AB6D00260139BD0649BD1B2EBD0649CE7F
:10DD40001D81BD04DCBD0A3B7E1BC6BD17B1BD1BDA
:10DD5000A8BD0650BD0650A600362A03BD08867F22
:10DD60000043A6062F059743BD0993BD0649BD068E
:10DD700049BD09C3BD1A8ABD1AA9C607CE1CC1BDBB
:10DD80001AE67D0043270CBD087DCE1CCDBD04DC0A
:10DD9000BD095C324D2A03BD087D7E1B0B09999994
:10DDA0006100009666826200000198078700009873
:10DDB00067664900000796263200FF96639373005A
:10DDC000FF0681241100FE0837254169000157072D
:10DDD000963201031415926501062831853001023F
:10DDE00050000000000230258510010100000000F5
:10DDF0000103333333330002000000000001428589
:10DE00007143000111111111000909090909FF07E6
:10DE100069230769FF0666666667FF0588235294D3
:10DE2000FF0100000000019833333333000833331F
:10DE30003333FE9801587302FD0275573192FB97F8
:10DE400049478916F90160590438F70100000000BC
:10DE5000019500000000000416666667FF986111D6
:10DE60001111FE0248015873FC9724426808FA0217
:10DE700008767570F8010000000001010000000044
:10DE80000105000000000001666666670004166672
:10DE90006667FF0833333333FE0138888889FE0113
:10DEA00098412698FD0248015873FC02755731923B
:10DEB000FB2EDD70000000030400000000000100E4
:10DEC00008700000000308ED3F019C0000FD8D7507
:10DED00019458CE0C2DF3A0920681DDC9041DD491C
:10DEE000213D01FF0F001108B95F1B258C2C016932
:10DEF000FD84914900FD80EFFB4101DD01631905BF
:10DF000091A0488EA0478D498D3C815826FA8D36C8
:10DF100081312707813926F07EE1157F1E008D268D
:10DF2000165C8D22B71E018D1DB71E02FE1E018DCF
:10DF300015A70001A100260B085A26F38D087C1EA8
:10DF40000027C57EE0408D1436BB1E00B71E003290
:10DF5000398611BDE1D1863CB780073937BDE1A5CF
:10DF6000A6002BFC6F02BDE1F3BDE1EFC604E702A2
:10DF700058BDE1EF0D6900465A26F6BDE1EF7EE19E
:10DF8000E300443FEF47FF06FEFF64F7FF1A5F061A
:10DF900062D76EB3F602AF9FEFF36F8246BF24F7EE
:10DFA000FF00FF00F0F6EFDEAEB26F9FE686FFFEE9
:10DFB0007F00917DE0D62B0FBDE1D32607FEA01098
:10DFC0007F1EAF39FEA0107A1EAF397D1EAF260C22
:10DFD000B680044724037E03A87E03BAB680047E7D
:10DFE00003A6000000000000000000000000000088
:10DFF0000000000000000000000000000000000021
:01E00000001F
:20C00000CEC03DBDE07ECE0000FFA00FCEC100FFA002CEDFFFFFA0048D09CEC05FBDE07EA1
:20C020007E0100FEA002A60008BCA004270EFFA002FEA00FA70008FFA00F20E7390D0A4C50
:20C040006F6164696E672053575450432042415349432076657220322E322E2E2E20040D61
:02C060000A04D0
