S123C0007EC0A67EC0B07EE1D1BDE1AC7EC3521EFF505249C3AE494E50C6A0494620C7BA47
S123C0204C4554C67A464F52C87E4E4558C8A5474F54C689474F53C8334F4E20C77E52459C
S123C04054C85B524541C72E444154C71F524553C77444494DC579455854C6094D4F4EE012
S123C060E3454E44C0B052454DC60C52554EC6674C4953C2EC534352C0A600524E44C9C861
S123C080414253C9C453474EC9BC00CE0100DF0ACE000C2008FEC00FDF0AFE02004FA70066
S123C0A0089C0A26F9398DE3CE0202FF02008DE5CEC003FFA0488EA07FCE0068DF0A8DD020
S123C0C0CE0200FFA002EE00FFA004DF08CE0068BDC1EA8621BDC34CBDC1D027D3A70081F2
S123C0E00D2708088C00B026EF20C5CE0068BDC231DF31BDC27B4D261ADE04A600810D2609
S123C10008D62827AB9712200ABDC64D270586107EC369963E9026973ED6282606BDC1EA43
S123C1207EC649FEC00FDF37DE31DF04BDC1A5DF225D26205CA60008810D26F8F7C14C8692
S123C140FF508D46DE22BC02002707A600A7000820F4DE229612262FFE0200D63ECB02F78F
S123C160C16C8D269C22270709A600A70020F509BDC5700808DF22DE04A60008DF04DE2205
S123C18008A700810D26EE7EC0B0FB0201B90200D73A9739BDCBBB2407F70201B702003968
S123C1A086907EC3699664D663CE0202BC020026025C39E100220A26F8A101220426F25FD1
S123C1C0398D030820E636860D08A10026FB3239BDC0098108260B8C0068270D097A003E5D
S123C1E020EE811827037C003E39DF22CEC201A60081042706BDC34C0820F4DE227F001D09
S123C200390D0A0000000004810D2702813A39BDCA594F976297639764398DF697289727C5
S123C2209726BDC268812B2707812D260473002708BDCBEBC103270596277ECAF2089728E1
S123C240840FC6047800647900637900625A26F49B6497647C002620D8DE04A60081202792
S123C260070820F78DB40908A600812027F939DE04BDCBEBC10226F00820F6BDC268DF048C
S123C280DF22CEC011C605A1002612DF0ADE2208A600DF22DE0A085AC10226EB39085A26DF
S123C2A0FCA60027F7DF0ADE04DF22A600DE0A20D4CE0062C6020CA6002A19862DBDC34C00
S123C2C07C001D200FA60085F025022707BDC3447C001D0DA600C5FF2706850F2502270738
S123C2E0BDC3487C001D0D085A2ADA39BDC26F810D2725BDC21ADF04BDC1A5DF22BDC26FD7
S123C300810D26057C001B200B08BDC268BDC21A9664971BDE222003CE0202BC020027216F
S123C320BDC1EAC6010C8D9DA600810D27058D1C0820F508961B27E38B99192704971B2071
S123C340DA7EC0B044444444840F8B30BDC00C7EC00636B680008401810127023239B680A9
S123C36001810327023239869936BDC1EACEC3A0BDC1EF3236BDC34432BDC348D619260307
S123C3807EC0B0CEC3A9BDC1EFDE04098C02022707A600810D26F408C6010CBDC2C520E0EE
S123C3A0074552524F522023042041542004BDC26FBDC20826037EC4447F0012812C262020
S123C3C0D61D8620BDC34C5CC50726F6C1472204D71D2003BDC1EA7C001208BDC26820D195
S123C3E0813B27F381222605088D6420497F0017815426069717864120068153262E865003
S123C400A1012628BDC271BDC92EBDC526D6642725961727075AD11D231C2002DB1D862034
S123C420BDC34C7C001DD11D26F4200ABDC92EDF22BDC2B1DE22BDCBE65A26037EC3B18613
S123C440317EC3697D00122603BDC1EA7EC60CA6008122270EBDC208270DBDC34C7C001DEF
S123C4600820EC087EC26886327EC369DF04BDCBEDC102262F7F002016481B80139721DEE1
S123C4802039A600087F00188DE25FA600810A2706810B2701395CA60136A6023637BDC214
S123C4A06F33812826715D271308BDC931966436BDCA6ABDC26F812C265D20024F364C9777
S123C4C01808BDC93108DF04329714329721329720DE20A60097160808DF20BDC20F96144E
S123C4E0DE2009A10022309764BDC20F9616915E270223238B01199764BDCAFCBDCAD2BD72
S123C500C51C9620D621DB6499639720D721BDCA6ADE207F00183986147EC369BDC20F8688
S123C520039764BDCAFC9664369663365FD763D76496628D1232368D0A328D0B32368D03EB
S123C54032201D444444448D17D6634859373648594859976432D7638D08329B63976339CC
S123C560840F9B64976424037C0063399662A7009663A7019664A70239DE06DF37BDC26FE7
S123C580BDC268BDC46CDF0ABDC26F8128262008BDC264812926054F5F362018812C260F3F
S123C5A09664270B3608BDC264C6018129270586407EC369966427F736DF04DE0A860A1B59
S123C5C0A7009608A7019609A702DE0832A7000833E70008DF208B011936178B011916BDD0
S123C5E0C212D764BDC20F329764BDCAFCBDC4FFBDCBB923037EC1A0DF08DE0408BDC2686C
S123C600BDC2082707087EC580BD1F004F9712971C9718972C961926037EC0B0DE04860D62
S123C620C63AA1002707E100270A0820F508BC020027E60808BDC00CBDC27B4D260BDE0432
S123C6408D0B270586107EC369EE006E00BDCBEBC102261208BDC268813D2704812826065B
S123C660CEC023971C5F39BDC08BBDC095FEC00FDF06CE02027C001920B4DE04961C2603F6
S123C680BDC259BDC86D7EC60CBDC26FBDC92EBDC1A55D270586167EC3695CD7197EC62E2A
S123C6A0BDC26F7F0013BDC2688122260608BDC44F203BBDC484DF33CE0068961326078664
S123C6C03F9713BDC34CBDC009811826057F001320E6A70008812C2709810D26E99712BD30
S123C6E0C1EACE0068BDC21ADE338D2DDF04812C260708961227AF20AABDC208261396127C
S123C70027037EC60CBDC009810D26F9BDC1EA20F186457EC369BDC484BDC56C7EC26F9642
S123C720192749BDC26F971ADF0CDF0E203E9619273A961A2739BDC259BDC268BDC484DFD4
S123C74033DE04DF35DE0EBDC92EA600BDC2082604DE0C200108DF0EDE35DF04DE338DB968
S123C760812C26030820D2BDC20826037EC60C86517EC369DF22DE0CDF0EDE2220EEBDC2FF
S123C78059BDC92E9664840F367F00120808A600815427029712BDC25BDF22324A2711E662
S123C7A00008C12C2604DF2220F2C10D26F1DE22D61227037EC83A7EC68CBDC26FBDC92E5A
S123C7C0A6008D63265C36A6018D5C322604E6011B080836BDC92E32840F80092B444848D2
S123C7E0B7C7EABDCACCBDCBC620FE2F1820302614202C2C1020282D0C2024270820202E53
S123C80004201C201DDE04A6008154260FBDC26FDF04BDCBEDC10326037EC68C7EC6387E08
S123C820C60C86627EC369813B2306813E22025F395C39D61927E8BDC26F7C001BBDC92E64
S123C84009BDC1C608A60036A601369F37CEA023BDCBB923037EC1A07EC68F86737A001BB8
S123C8602A037EC3693233BDC1A97EC692BDC482DF33BDC26F08BDC92EDE337EC56CBDC27D
S123C88059368DE9DE08DF37DE0632A700960509A700960409A70009BDCBB922037EC1A0F3
S123C8A0DF067EC60CBDC259DF1EDE06BCC00F2604DE042074080808A10026F0090909DF92
S123C8C00608EE00DF04BDC484DF33BDC26FBDC92EBDCA59DE33BDCA4CDE04A60081532775
S123C8E008BDC20F4C9764200ABDC271BDC92E9662971CBDCAD2CE0010BDC56CBDCACCBDA9
S123C900CBC6D61C2B05062C122003062F0DDE06080808DF06DE1EDF04200BCE0010BDCA67
S123C9204CDE33BDC56C7EC60C86817EC3697F002C962C972D8D044D26F1399FFEBDCBE63D
S123C940DF04C10126048621204A54C1032603BDC20FDE04BDCBE6DF04C1042302C60558E4
S123C960F7C96420FE202B201B2038202C2004360820CA3009D6189CFE2706325F812827AC
S123C980F25D270E4FD62C5AD12D260630099CFE270486209EFEDE0439BDCA59DE04BDC29E
S123C9A01A2059A601BDCBEDC1022628A600DF22CEC07BBDC2854D27CB7EC649863F36DE5A
S123C9C0227EC93D864020F6BDC20FBDCC329764DE222028D6FE37D6FF37D62D37D61837CF
S123C9E0BDC48233D71833D72D33D7FF33D7FEBDCA59DE20BDCA4C2005DE0408DF043009EA
S123CA009CFE2737323681282731BDCBED3754962C4AC1042704912D272181092304862454
S123CA2020163233800648B7CA2ECECA3EEE00AD00BDCBC628C886237EC9947EC952CAD272
S123CA40CACCCB8ACAC4CAFCCB1DCB9CA6009762A6019763A602976439CE003BE603E7004F
S123CA60088C006226F67C002C39CE0064E600E703098C003A26F67A002C390CCE0064A60F
S123CA8000A90319A700098C006126F337C60285F026015FDA30D7301733398D030D20DCF0
S123CAA0CE00678699A000A700098C006426F4840FA701397F0030966516C40FD765972FBB
S123CAC09862972ED662C40FD7624D39966288F097628D588DDE2A0A8DC106280973002FB5
S123CAE0200B8D97200A8D44BDC20F8DAE7F0030962F84F0C60FD4621B9762398D2E8DB4E3
S123CB00BDC20FC605965F2708BDCA7B7A005F26F85A273D8D4A9662BDCA8C20E88D0DCE8B
S123CB200065BDCBC9260886227EC9947ECA6ABDCAB4BDCA598D296F026F03C6058D21BDEE
S123CB40CAA08D2E85F02613BDCAA00C8D255A26EC962E8D9DCE005E7ECA6D7C006420E2FC
S123CB608604CE00640C6900098C005E26F84A26F1390DCE0061965F840F975FA600A906C6
S123CB8019A700098C005E26F3398D3A270BD6628D077C0064177ECAF27EC2128D8E5FD7F3
S123CBA030966727EBBDCA598D828B9919271636BDCAB7BDCB003220F1DF399639913726B5
S123CBC004D63AD13839CE00625F6D02260E6D01260AA600840F2604A700C604A6004684E7
S123CBE0081B9A300639BDC2682002A600C601810D27175A3680282B108118230E813223B0
S123CC000681362604C60ACB023239DF24CECC19B7CC14E600DE2420F005040A06010700BB
S123CC200B0303030303030303030301010101010809C608CE0000A603484848A803484859
S118CC4069006901690269035A26ECA600819F22E18B0019391F
S1041F0039A3
S9030000FC
