S12301007E01A67E01B07EE1D1BDE1AC7E04521EFF50524904AE494E5007A049462008BA80
S12301204C4554077A464F52097E4E455809A5474F540789474F5309334F4E20087E5245D5
S123014054095B524541082E444154081F524553087444494D067945585407094D4F4EE04B
S1230160E3454E4401B052454D070C52554E07674C495303EC53435201A600524E440AC89A
S12301804142530AC453474E0ABC00CE0100DF0ACE000C2008FE010FDF0AFE0D554FA70002
S12301A0089C0A26F9398DE3CE0D57FF0D558DE5CE0103FFA0488EA07FCE0068DF0A8DD0DE
S12301C0CE0D55FFA002EE00FFA004DF08CE0068BD02EA8621BD044CBD02D027D3A700818E
S12301E00D2708088C00B026EF20C5CE0068BD0331DF31BD037B4D261ADE04A600810D2646
S123020008D62827AB9712200ABD074D270586107E0469963E9026973ED6282606BD02EA3F
S12302207E0749FE010FDF37DE31DF04BD02A5DF225D26205CA60008810D26F8F7024C864D
S1230240FF508D46DE22BC0D552707A600A7000820F4DE229612262FFE0D55D63ECB02F78E
S1230260026C8D269C22270709A600A70020F509BD06700808DF22DE04A60008DF04DE2242
S123028008A700810D26EE7E01B0FB0D56B90D55D73A9739BD0CBB2407F70D56B70D553925
S12302A086907E04699664D663CE0D57BC0D5526025C39E100220A26F8A101220426F25F8F
S12302C0398D030820E636860D08A10026FB3239BD01098108260B8C0068270D097A003EDB
S12302E020EE811827037C003E39DF22CE0301A60081042706BD044C0820F4DE227F001D46
S1230300390D0A0000000004810D2702813A39BD0B594F976297639764398DF69728972743
S12303209726BD0368812B2707812D260473002708BD0CEBC103270596277E0BF2089728DD
S1230340840FC6047800647900637900625A26F49B6497647C002620D8DE04A60081202751
S1230360070820F78DB40908A600812027F939DE04BD0CEBC10226F00820F6BD0368DF04C9
S1230380DF22CE0111C605A1002612DF0ADE2208A600DF22DE0A085AC10226EB39085A265D
S12303A0FCA60027F7DF0ADE04DF22A600DE0A20D4CE0062C6020CA6002A19862DBD044C7E
S12303C07C001D200FA60085F025022707BD04447C001D0DA600C5FF2706850F25022707B6
S12303E0BD04487C001D0D085A2ADA39BD036F810D2725BD031ADF04BD02A5DF22BD036F51
S1230400810D26057C001B200B08BD0368BD031A9664971BDE222003CE0D57BC0D552721EC
S1230420BD02EAC6010C8D9DA600810D27058D1C0820F508961B27E38B99192704971B20EF
S1230440DA7E01B044444444840F8B30BD010C7E010636B680008401810127023239B680A5
S123046001810327023239869936BD02EACE04A0BD02EF3236BD044432BD0448D619260381
S12304807E01B0CE04A9BD02EFDE04098C0D572707A600810D26F408C6010CBD03C520E049
S12304A0074552524F522023042041542004BD036FBD030826037E05447F0012812C26201C
S12304C0D61D8620BD044C5CC50726F6C1472204D71D2003BD02EA7C001208BD036820D191
S12304E0813B27F381222605088D6420497F0017815426069717864120068153262E8650C2
S1230500A1012628BD0371BD0A2EBD0626D6642725961727075AD11D231C2002DB1D862030
S1230520BD044C7C001DD11D26F4200ABD0A2EDF22BD03B1DE22BD0CE65A26037E04B1868D
S1230540317E04697D00122603BD02EA7E070CA6008122270EBD0308270DBD044C7C001D69
S12305600820EC087E036886327E0469DF04BD0CEDC102262F7F002016481B80139721DEDD
S12305802039A600087F00188DE25FA600810A2706810B2701395CA60136A6023637BD0392
S12305A06F33812826715D271308BD0A31966436BD0B6ABD036F812C265D20024F364C9773
S12305C01808BD0A3108DF04329714329721329720DE20A60097160808DF20BD030F96148B
S12305E0DE2009A10022309764BD030F9616915E270223238B01199764BD0BFCBD0BD2BD6E
S1230600061C9620D621DB6499639720D721BD0B6ADE207F00183986147E0469BD030F8643
S1230620039764BD0BFC9664369663365FD763D76496628D1232368D0A328D0B32368D0369
S123064032201D444444448D17D6634859373648594859976432D7638D08329B639763398B
S1230660840F9B64976424037C0063399662A7009663A7019664A70239DE06DF37BD036F65
S1230680BD0368BD056CDF0ABD036F8128262008BD0364812926054F5F362018812C260FFA
S12306A09664270B3608BD0364C6018129270586407E0469966427F736DF04DE0A860A1B96
S12306C0A7009608A7019609A702DE0832A7000833E70008DF208B011936178B011916BD8F
S12306E00312D764BD030F329764BD0BFCBD05FFBD0CB923037E02A0DF08DE0408BD036864
S1230700BD03082707087E0680BD1F004F9712971C9718972C961926037E01B0DE04860D5E
S1230720C63AA1002707E100270A0820F508BC0D5527E60808BD010CBD037B4D260BDE040F
S12307408D0B270586107E0469EE006E00BD0CEBC102261208BD0368813D27048128260657
S1230760CE0123971C5F39BD018BBD0195FE010FDF06CE0D577C001920B4DE04961C260351
S1230780BD0359BD096D7E070CBD036FBD0A2EBD02A55D270586167E04695CD7197E072EE1
S12307A0BD036F7F0013BD03688122260608BD054F203BBD0584DF33CE006896132607861F
S12307C03F9713BD044CBD0109811826057F001320E6A70008812C2709810D26E99712BD6D
S12307E002EACE0068BD031ADE338D2DDF04812C260708961227AF20AABD03082613961278
S123080027037E070CBD0109810D26F9BD02EA20F186457E0469BD0584BD066C7E036F963A
S1230820192749BD036F971ADF0CDF0E203E9619273A961A2739BD0359BD0368BD0584DF8F
S123084033DE04DF35DE0EBD0A2EA600BD03082604DE0C200108DF0EDE35DF04DE338DB9A5
S1230860812C26030820D2BD030826037E070C86517E0469DF22DE0CDF0EDE2220EEBD03BA
S123088059BD0A2E9664840F367F00120808A600815427029712BD035BDF22324A2711E69F
S12308A00008C12C2604DF2220F2C10D26F1DE22D61227037E093A7E078CBD036FBD0A2E15
S12308C0A6008D63265C36A6018D5C322604E6011B080836BD0A2E32840F80092B44484850
S12308E0B708EABD0BCCBD0CC620FE2F1820302614202C2C1020282D0C2024270820202E4F
S123090004201C201DDE04A6008154260FBD036FDF04BD0CEDC10326037E078C7E07387EC3
S1230920070C86627E0469813B2306813E22025F395C39D61927E8BD036F7C001BBD0A2E1F
S123094009BD02C608A60036A601369F37CEA023BD0CB923037E02A07E078F86737A001B73
S12309602A037E04693233BD02A97E0792BD0582DF33BD036F08BD0A2EDE337E066CBD0334
S123098059368DE9DE08DF37DE0632A700960509A700960409A70009BD0CB922037E02A030
S12309A0DF067E070CBD0359DF1EDE06BC010F2604DE042074080808A10026F0090909DF8E
S12309C00608EE00DF04BD0584DF33BD036FBD0A2EBD0B59DE33BD0B4CDE04A600815327EF
S12309E008BD030F4C9764200ABD0371BD0A2E9662971CBD0BD2CE0010BD066CBD0BCCBDE2
S1230A000CC6D61C2B05062C122003062F0DDE06080808DF06DE1EDF04200BCE0010BD0BA4
S1230A204CDE33BD066C7E070C86817E04697F002C962C972D8D044D26F1399FFEBD0CE6F8
S1230A40DF04C10126048621204A54C1032603BD030FDE04BD0CE6DF04C1042302C6055821
S1230A60F70A6420FE202B201B2038202C2004360820CA3009D6189CFE2706325F8128272A
S1230A80F25D270E4FD62C5AD12D260630099CFE270486209EFEDE0439BD0B59DE04BD03DB
S1230AA01A2059A601BD0CEDC1022628A600DF22CE017BBD03854D27CB7E0749863F36DE15
S1230AC0227E0A3D864020F6BD030FBD0D329764DE222028D6FE37D6FF37D62D37D61837CB
S1230AE0BD058233D71833D72D33D7FF33D7FEBD0B59DE20BD0B4C2005DE0408DF043009E6
S1230B009CFE2737323681282731BD0CED3754962C4AC1042704912D2721810923048624D2
S1230B2020163233800648B70B2ECE0B3EEE00AD00BD0CC628C886237E0A947E0A520BD2AB
S1230B400BCC0C8A0BC40BFC0C1D0C9CA6009762A6019763A602976439CE003BE603E70088
S1230B60088C006226F67C002C39CE0064E600E703098C003A26F67A002C390CCE0064A6CE
S1230B8000A90319A700098C006126F337C60285F026015FDA30D7301733398D030D20DCAF
S1230BA0CE00678699A000A700098C006426F4840FA701397F0030966516C40FD765972F7A
S1230BC09862972ED662C40FD7624D39966288F097628D588DDE2A0A8DC106280973002F74
S1230BE0200B8D97200A8D44BD030F8DAE7F0030962F84F0C60FD4621B9762398D2E8DB461
S1230C00BD030FC605965F2708BD0B7B7A005F26F85A273D8D4A9662BD0B8C20E88D0DCE87
S1230C200065BD0CC9260886227E0A947E0B6ABD0BB4BD0B598D296F026F03C6058D21BD68
S1230C400BA08D2E85F02613BD0BA00C8D255A26EC962E8D9DCE005E7E0B6D7C006420E2F8
S1230C608604CE00640C6900098C005E26F84A26F1390DCE0061965F840F975FA600A90685
S1230C8019A700098C005E26F3398D3A270BD6628D077C0064177E0BF27E03128D8E5FD730
S1230CA030966727EBBD0B598D828B9919271636BD0BB7BD0C003220F1DF399639913726B1
S1230CC004D63AD13839CE00625F6D02260E6D01260AA600840F2604A700C604A6004684A6
S1230CE0081B9A300639BD03682002A600C601810D27175A3680282B108118230E8132232E
S1230D000681362604C60ACB023239DF24CE0D19B70D14E600DE2420F005040A06010700F8
S1230D200B0303030303030303030301010101010809C608CE0000A603484848A803484818
S1180D4069006901690269035A26ECA600819F22E18B001939DE
S1041F0039A3
S9030000FC
