S1230100BD028ABD029CCE01608D42CE0000BD0310CE016A8D37CE0000BD0310CE01718D33
S12301202CCE0000BD0310CE01798D21CE0000BD0310CE017C8D16CE0000BD0310CE018979
S12301408D0BCE0000BD031020BC7EE0E3FF1029A60081042709BD01A2FE10290820EE39CF
S12301600C4C696E6520310D0A044C696E65203204204C696E652033040A2A0454686973CE
S12301802077726170706564040C57656C636F6D6520746F2074686520646973706C6179F2
S12301A0210436F68012C401275E8100275A817F2756810D2609B610005FBD0394207B813D
S12301C00A261EB610008101260EB61001BD023C168601BD039420624CF61001BD03942055
S12301E0598108261CF6100127505AB61000BD039486208DADB61000F610015ABD0394206A
S123020039810C2605BD02E9203081202D2CF61001C110261FF61000C101270D36860D8D88
S123022081860ABD01A232200BBD023C3686015FBD039432BD03257C10013239365F860156
S1230240CB104A26FB1BCE1002FF1024F610251BB71023B610248900B71022FE10224F5FBC
S1230260BD0394C610A60037BD03257C100133085A26F286015FBD0394C610862037BD03A7
S1230280257C1001335A26F532394FB7801386FEB780128604B780137F801239CE04E28DD0
S12302A06F86308D6FCE02718D6686308D66C6118D5A86308D5EC6118D5286208D56C611C7
S12302C08D4A8628BD0374C6098D418608BD0374C6098D388606BD0374C6098D2F860EBDD2
S12302E00374C6098D268D0139FF10268601BD0374C6FF8D177F10007F1001CE100286203C
S1230300A700088C102226F8FE1026395A26FD390926FD390F3684F08A08B7801284F7B700
S12303208012320E390F36FF102616C4F0CA0CF78012C4F7F78012484848488A0CB78012C8
S123034084F7B780125FB610002705CB104A20F9FB100117CE1002FF1024F610251BB71003
S123036023B610248900B7102232FE1022A700FE10260E390F3616C4F0CA08F78012C4F355
S1230380F78012484848488A08B7801284F3B78012320E39B71000F710014848484848481D
S10903A08A801B8DCF3999
S5030016E6
